S00D00006B7A6C6F61642E6D6F74EF
S113000000000100000000000000000000000000EB
S113001000000000000000000000000000000000DC
S113002000000000000000000000000000000000CC
S113003000000000000000000000000000000000BC
S113004000000000000000000000000000000000AC
S1130050000000000000000000000000000000009C
S1130060000000000000000000000000000000008C
S1130070000000000000000000000000000000007C
S1130080000000000000000000000000000000006C
S1130090000000000000000000000000000000005C
S11300A0000000000000000000000000000000004C
S11300B0000000000000000000000000000000003C
S11300C0000000000000000000000000000000002C
S11300D0000000000000000000000000000000001C
S11300E0000000000000000000000000000000000C
S11300F000000000000000000000000000000000FC
S11301007A0700FFFF005E0001A040FE01006DF6CB
S11301100FF67A00000004A85E00037019116B202A
S113012000FFFC2017F05E0003947A00000004E056
S11301305E0003707A00000004B75E0003701911BA
S11301406B2000FFFC3217F05E0003947A0000007D
S113015004E05E0003707A00000004C55E000370D2
S113016019116B2000FFFC2217F05E0003947A0043
S1130170000004E05E0003707A00000004BE5E002C
S1130180037019116B2000FFFC3017F05E0003941C
S11301907A00000004E05E00037001006D76547084
S11301A001006DF60FF67A0200FFFC307A3200FF90
S11301B0FC207A01000005097A0000FFFC205E00A3
S11301C0023A7A0200FFFC347A3200FFFC30191143
S11301D07A0000FFFC305E000222790000015E001C
S11301E003F87A00000004D45E0003705E00010C82
S11301F07A00000004E25E000370790200206BA222
S113020000FFFC20FA306BA200FFFC32FA406BA224
S113021000FFFC22FA506BA200FFFC305E00010CD0
S113022040FE01006DF60FF60FA24F0868890B001F
S11302301B0240F401006D76547001006DF60FF658
S113024001006DF40F840FA30FB34F0A6C1A688A70
S11302500B001B0340F20FC001006D7401006D76AA
S1130260547001006DF60FF601006DF40F840FA2B7
S11302704F1E6848681B1CB8470E430679000001EE
S113028040107900FFFF400A0B040B011B0240DE03
S1130290190001006D7401006D76547001006DF653
S11302A00FF6680A47041900400001006D76547087
S11302B001006DF60FF60F83681A688A681A4706FC
S11302C00B000B0140F20FB001006D765470010079
S11302D06DF60FF6680A4604681A471C680B681A1C
S11302E01CAB470E430679000001400E7900FFFF66
S11302F040080B000B0140DC190001006D765470BE
S113030001006DF60FF601006DF40F840D20401A04
S1130310681A1CAB470E430679000001401A7900A5
S1130320FFFF40140B040B011B00684B4604681AC2
S113033047040D004EDA190001006D7401006D765A
S1130340547001006DF60FF601006DF40C8CA80AD0
S1130350460AF90D790000015E0004520CC97900C7
S113036000015E00045201006D7401006D7654704A
S113037001006DF60FF601006DF40F84684A47081A
S11303806C485E00034240F4190001006D740100E2
S11303906D76547001006DF60FF67A17FFFFFFF4C7
S11303A018AA6EEAFFFC0FE31B931B030F8046069B
S11303B00D1146020B011AA20C8AEA0F78206A2A50
S11303C0000004F868BA1B030F8211321132113293
S11303D011320FA00D1147021B010FA246D80D11B7
S11303E046D40FB00B005E00037019007A170000AA
S11303F0000C01006D76547001006DF60FF617F0D5
S113040010301030010078006B2300FFFC241888A2
S11304106EB8000268B8FA406EBA0001FA306EBADB
S113042000026EB80004190001006D7654700100DA
S11304306DF60FF617F010301030010078006B22C3
S113044000FFFC246E2800047960008001006D76B2
S1130450547001006DF60FF61B9701006DF4010056
S11304606DF50D056EE9FFFF0D0217F21032103223
S1130470010078206B2400FFFC240D505E00042E44
S11304800D0047F66E6AFFFF6ECA00036E4A000451
S1130490EA7F6ECA0004190001006D7501006D74D5
S10B04A00B9701006D76547006
S11304A8676C6F62616C5F64617461203D200067F2
S11304B86C6F62616C5F627373203D2000737461BA
S11304C87469635F64617461203D200048656C6CE5
S11304D86F20576F726C64210A006F7665727772A9
S11304E8697465207661726961626C65732E0A00AD
S11304F8303132333435363738396162636465668E
S104050800EE
S11305090010002000FFFFB000FFFFB800FFFFC08C
S9030100FB
